:020000040800F2
:10000000E0060020250200082D060008250600084D
:1000100029060008FB0200082D0E00080000000061
:1000200000000000000000000000000009080008B7
:100030004D05000800000000BD060008F908000892
:100040003F0200083F0200083F0200083F0200088C
:100050003F0200083F0200083F0200083F0200087C
:100060003F0200083F0200083F0200083F0200086C
:100070003F020008190300083F0200083F02000881
:100080003F0200083F0200083F0200083F0200084C
:100090003F0200083F0200083F0200083F0200083C
:1000A0003F0200083F0200083F0200083F0200082C
:1000B000710900080D0B00083F0200083F0200080C
:1000C0003F0200083F0200083F0200083F0200080C
:1000D0003F0200083F0200083F0200083F020008FC
:1000E0003F0200083F0200083F0200083F020008EC
:1000F0003F0200083F0200083F0200083F020008DC
:100100003F0200083F0200083F0200083F020008CB
:100110003F0200083F0200083F0200083F020008BB
:100120003F0200083F0200083F0200083F020008AB
:100130003F0200083F0200083F0200083F0200089B
:100140003F0200083F0200083F0200083F0200088B
:100150003F0200083F0200083F0200083F0200087B
:100160003F0200083F0200083F0200083F0200086B
:100170003F0200083F0200083F0200083F0200085B
:100180003F0200083F02000800F002F800F03AF8D1
:100190000AA090E8000C82448344AAF10107DA45E2
:1001A00001D100F02FF8AFF2090EBAE80F0013F0FA
:1001B000010F18BFFB1A43F001031847302200005B
:1001C00050220000103A24BF78C878C1FAD85207EC
:1001D00024BF30C830C144BF04680C6070470000C1
:1001E0000023002400250026103A28BF78C1FBD840
:1001F000520728BF30C148BF0B6070471FB51FBDF5
:1002000010B510BD00F031F81146FFF7F7FF01F00F
:1002100007F800F04FF803B4FFF7F2FF03BC00F05B
:1002200057F800000948804709480047FEE7FEE705
:10023000FEE7FEE7FEE7FEE7FEE7FEE7FEE7FEE796
:1002400004480549054A064B704700001509000897
:1002500089010008E0000020E0060020E002002004
:10026000E0020020704770477047754600F02CF898
:10027000AE4605006946534620F00700854618B093
:1002800020B5FFF7DDFFBDE820404FF000064FF03E
:1002900000074FF000084FF0000B21F00701AC46BB
:1002A000ACE8C009ACE8C009ACE8C009ACE8C009DA
:1002B0008D46704710B50446AFF300802046BDE878
:1002C0001040FFF7A8BF00000048704780000020E2
:1002D00001491820ABBEFEE726000200704710B5AA
:1002E00001464B788C7843EA0423CC7843EA0443F4
:1002F0000C7943EA0462104610BD00BFFEE700001F
:100300000146002003E00A5C024B1A54401C0428FA
:10031000F9DB70475000002010B53949394800F02A
:10032000A7F80020384908600CE0384836490968C9
:10033000405C3749344A1268885433480068401C8E
:1003400031490860304800680528EEDB3048007805
:10035000502804D12E48FFF7C2FF2E4908602C48D0
:100360000078492804D12A48FFF7B9FF2A490860D4
:1003700027480078442804D12548FFF7B0FF2749D3
:10038000086023480078412819D12148FFF7A7FFCA
:100390002349086001202349087000202249087081
:1003A00022480078022806D100202149086021490E
:1003B0000860214908601B4800781C4908701448EF
:1003C0000078422816D11248FFF789FF14490860C7
:1003D00002201449087015480078012806D1002031
:1003E0001349086013490860134908600D480078F4
:1003F0000E4908700121034800F054F810BD0000B8
:1004000000802010406002402000002055000020A5
:1004100010000020340000202C00002030000020BC
:10042000380000200A000020090000200B000020F6
:1004300048000020400000203C0000200246094BFC
:100440009A4201D2084801E00648103801F00053F2
:100450001BB1064B0B40C36002E0044B0B408360B2
:100460007047000010640240006002407D0F7D0F65
:100470000246094B9A4201D2084801E0064810386A
:1004800001F000531BB1064B0B40C36002E0044B6C
:100490000B4083607047000010640240006002401F
:1004A0007D0F7D0F21B1026842F00102026003E07E
:1004B000026822F001020260704710B501F080036B
:1004C0004BB122B1436943F08003436103E04369C8
:1004D00023F08003436180290BD02AB1036801F027
:1004E0001E042343036004E0036801F01E04A343D9
:1004F000036010BD10B500220268134B1A40CC688F
:100500000B6823434C6923438C692343CC69234301
:100510000C6A23434C6A23438C6A23434C6B23436A
:100520008C6B23431A430260426922F00702D1E92F
:100530000B3423431A4342610B6943604B68836069
:100540008B68C36010BD00003F801CF07047F0B5A1
:100550000A4600210023002400BF3DE0012505FAE2
:1005600001F3156805EA03049C4234D105684F0085
:100570000326BE40B543056015794E00B5400668B8
:10058000354305601579012D02D01579022D16D15C
:1005900085684F000326BE40B543856055794E00FF
:1005A000B540866835438560456801268E40B54371
:1005B0004560456896798E40B6B235434560C5685A
:1005C0004F000326BE40B543C560D5794E00B54007
:1005D000C6683543C560491C1029BFD3F0BDF0B5CE
:1005E000002300244D07ED0E02FA05F3CE1000F1B2
:1005F000200555F826504E07F70E0F26BE40B5438E
:10060000CF1000F1200646F82750CE1000F120054B
:1006100055F8265045EA0304CE1000F1200545F8B0
:100620002640F0BD00BFFEE700BFFEE770470000B8
:1006300070B5002100230F22C4781CB3174C246826
:1006400004F4E064C4F5E064C4F30721C1F10404D8
:10065000E3B20A4144789C40E1B2847814402143DB
:100660000C07210E0E4C05786155047804F01F0527
:100670000124AC4005786D11AD0005F1E025C5F809
:10068000004109E0047804F01F050124AC40054D49
:100690000678761145F8264070BD00000CED00E0AC
:1006A00000E400E080E100E002490143024A1160F9
:1006B000704700000000FA050CED00E070470000F4
:1006C00029B1064A12680243044B1A6004E0034A47
:1006D00012688243014B1A607047000030380240B4
:1006E00029B1064A12680243044B1A6004E0034A27
:1006F00012688243014B1A60704700004038024084
:1007000029B1064A12680243044B1A6004E0034A06
:1007100012688243014B1A6070470000443802405F
:10072000F0B5002100220024022500260223324FCA
:100730003F6807F00C0121B1042905D0082937D101
:1007400005E02E4F076036E02D4F076033E02A4F5B
:100750003F1F3F68C7F38056274F3F1F3F6807F092
:100760003F036EB1264FB7FBF3F7DFF88CC0ACF157
:10077000040CDCF800C0CCF3881C07FB0CF40CE084
:100780001E4FB7FBF3F7DFF870C0ACF1040CDCF8D8
:1007900000C0CCF3881C07FB0CF4174F3F1F3F68C9
:1007A000C7F301477F1C7D00B4FBF5F7076002E04B
:1007B000124F076000BF00BF0F4F3F6807F0F00106
:1007C0000909104F7A5C0768D74047600A4F3F68B5
:1007D00007F4E051890A0B4F7A5C4768D74087607D
:1007E000054F3F6807F46041490B064F7A5C476844
:1007F000D740C760F0BD0000083802400024F40074
:1008000000127A0070000020704700000CB5002034
:10081000019000903448006840F48030324908600C
:1008200000BF3148006800F4003000900198401C7F
:100830000190009818B90198B0F5A04FF1D12A485D
:10084000006800F4003010B10120009001E00020A9
:1008500000900098012846D123484030006840F0BD
:1008600080502149403108602048006840F44040F1
:100870001E4908601C48083000681B4908310860A0
:100880000846006840F4004008600846006840F4EC
:10089000A05008601648091F0860081F006840F053
:1008A0008070091F086000BF0F48006800F00070EA
:1008B0000028F9D040F205700E4908600A48083057
:1008C000006820F003000849083108600846006805
:1008D00040F00200086000BF03480830006800F0E4
:1008E0000C000828F8D10CBD003802400070004010
:1008F00008544007003C02400120044908600448B5
:100900000068401C02490860704700000400002095
:100910000000002010B51248006840F001001049A6
:10092000086000200E49083108600D4800680D4934
:1009300008400B4908600C48091D0860081F006842
:1009400020F48020091F0860002005490C31086050
:10095000FFF75CFF4FF000600449086010BD000025
:1009600000380240FFFFF6FE1030002408ED00E0E2
:1009700070B50121880700F038F9012842D1012122
:10098000800700F0FFF85148007801283BD150481B
:100990000168504801F0ACFB05464F4800F022F9D1
:1009A000064601F05DFB0446294601F0D5F94B49A6
:1009B00008604B494948006801F09AFB04464949E0
:1009C00001F038FA4849086048480068142812D1F4
:1009D0000020464908604448FFF792FC44494548D6
:1009E000FFF72CFD04204349703948670121414835
:1009F000FFF758FD04E03D480068401C3B49086093
:100A000000F020FC60E03148007802285CD100F062
:100A100075FD39480088052851D1002036490880E5
:100A20003648006836490860294801684FF08F4011
:100A300001F05EFB0546284800F0D4F8064601F0B8
:100A40000FFB0446294601F087F92C4908602C4821
:100A500001682A48006801F053FC0546294901F065
:100A600047FB04461F4901F0E5F9274908601A4889
:100A700000F0B8F8044601F0F3FA204908600020BD
:100A80001349086019480068042812D1002017494A
:100A900008601D48FFF734FC15491648FFF7CEFCE7
:100AA000042014497039486701211248FFF7FAFC05
:100AB0000AE00E480068401C0C49086004E00E483B
:100AC0000088401C0C49088070BD00000A0000200E
:100AD0006000002000FF7F47000400405C00002011
:100AE0000000B4430000A5440C00002028000020B2
:100AF00020000020706002402400002064000020DC
:100B000068000020000016456C00002010B501218F
:100B1000194800F06AF801282DD10121164800F08B
:100B200031F8154800F05EF884B2144800780228C5
:100B30000CD14FF6FF70844202D1002010490860AA
:100B4000CCB94FF07E500E49086014E04FF6FF70AC
:100B5000844207D14FF07E510948006801F0D0FB74
:100B6000074908603CB94FF07E510548006801F024
:100B7000F3F80349086010BD000400400A0000209B
:100B800060000020CA430282704721B1028842F00F
:100B90000102028004E002884FF6FE731A400280D0
:100BA0007047F0B50C4615461E4600210022002372
:100BB0000189028B038C4FF6F877394021434FF6B9
:100BC000FC473A4040F201173A434FF6DD773B408D
:100BD0004FF6FF7707EA06172F433B430181028355
:100BE0000384F0BD0146486A704702460020138A1C
:100BF0000B400BB1012000E0002070471AB183893F
:100C00000B43838102E083898B438381704700001B
:100C100070B5002400220023058C4FF6FE76354087
:100C20000584028C8388048B4FF68F752C40B51E8B
:100C30002C400D882C43751E2A408D892A434D88EF
:100C40002A43104DA84202D00F4DA84213D14FF6AF
:100C5000F7752A40CD892A434FF6FB752A408D88C7
:100C60002A434FF6FF652B404FF6FF552B400D8A68
:100C70002B434D8A2B43838004838D684563028414
:100C800070BD000000000140000401400A46002140
:100C9000018B4FF6F773194011430183704741638D
:100CA000704741627047000000220288184B98424A
:100CB0000ED0184B98420BD0B0F1804F08D0164B95
:100CC000984205D0154B984202D0154B984204D15A
:100CD0004FF68F731A404B881A43124B984207D035
:100CE000114B984204D04FF6FF431A400B891A4328
:100CF00002804B68C3620B880385054B984202D083
:100D0000044B984201D18B7A03860123838270477A
:100D100000000140000401400004004000080040C1
:100D2000000C0040001000400014004021B18289F6
:100D300042F40052828104E082894DF6FF731A402A
:100D4000828170471AB1838A0B43838202E0838ACF
:100D50008B438382704700002DE9FF4705460E460E
:100D60000024A14600BFA046B08900B100BF2C8A74
:100D700024F44054F08804432C82AC8941F20C6086
:100D80008443B08831890843718908430443AC81A6
:100D9000AC8A24F44074B0890443AC826846FFF7FF
:100DA000BFFC2048854202D01F48854202D1DDF8B1
:100DB0000C9001E0DDF80890A88900F4004040B1F3
:100DC00009EBC90000EB091031684900B0FBF1F7ED
:100DD00007E009EBC90000EB091031688900B0FB9E
:100DE000F1F76420B7FBF0F004012009642101FB56
:100DF0001078A88900F4004040B1322000EBC80010
:100E0000B0FBF1F000F00700044308E0322000EBF3
:100E100008106421B0FBF1F000F00F0004432C81B6
:100E2000BDE8FF87001001400014014000BFFEE74D
:100E300000B587B001210846FFF742FC02220621D7
:100E40002A48FFF7CCFB022207212848FFF7C7FBFF
:100E5000C020059002208DF8180000208DF81A009F
:100E60008DF81B0002208DF8190005A91F48FFF717
:100E70006EFB01210220FFF733FC0020ADF80800D3
:100E80004FF6FF7003900020ADF8100002A918483B
:100E9000FFF70AFF00231A4603211548FFF781FEDA
:100EA00000211348FFF7FDFE01211148FFF76DFEF9
:100EB00001210F48FFF766FE012211460C48FFF79B
:100EC0009DFE4FF4A060FFF7EFFB1D208DF804009E
:100ED00002208DF8050000208DF8060001208DF815
:100EE000070001A8FFF7A4FB07B000BD0000024007
:100EF0000004004000B58BB001210820FFF7E0FBA3
:100F000002220C214548FFF76AFB4FF480500990FC
:100F100000208DF82A008DF82B0002208DF8280083
:100F200003208DF8290009A93C48FFF710FB012197
:100F30000846FFF7C5FB032202213948FFF74FFBA4
:100F40000420099000208DF82A008DF82B00022043
:100F50008DF8280003208DF8290009A93048FFF7F3
:100F6000F6FA01210420FFF7BBFB4020ADF8180082
:100F70000020ADF81A004FF4A06007900020ADF8F3
:100F800020008DF8220006A92648FFF78DFE0121DA
:100F90002448FFF7FAFD01210804FFF7B1FB822086
:100FA000ADF818000020ADF81A004FF4A0600790CB
:100FB0000020ADF820008DF8220006A91A48FFF79E
:100FC00073FE01211848FFF7E0FD7020ADF8040022
:100FD0000120ADF806000220ADF8100000200390BB
:100FE00001A91048FFF714FE08210E48FFF74EFE36
:100FF0007020ADF804000120ADF806000220ADF825
:1010000010000020039001A90748FFF701FE082106
:101010000548FFF73BFE0BB000BD0000000C02408E
:101020000000024000080040004001401FB50121BF
:101030000846FFF755FB3920029041F61F40ADF8F6
:1010400004000020ADF80C00ADF8060001A94FF037
:101050008040FFF729FE01218807FFF793FD01215A
:101060008807FFF792FD012211469007FFF7C6FDA2
:101070004FF4A060FFF718FB1C208DF80000012042
:101080008DF8010000208DF8020001208DF803008A
:101090006846FFF7CDFA1FBD00B597B0012108469D
:1010A000FFF70EFB082200215848FFF798FA0822A4
:1010B00001215648FFF793FA0120159002208DF880
:1010C000580000208DF85A0001208DF85B000220A6
:1010D0008DF8590015A94D48FFF739FA02201590EF
:1010E0008DF8580015A94948FFF731FA0121C804C5
:1010F000FFF7F6FA4FF4E13011900020ADF8480008
:10110000ADF84A00ADF84C00ADF850000C20ADF839
:101110004E0011A93E48FFF71FFE01213C48FFF792
:1011200005FE01214805FFF7CBFA0122802138484E
:10113000FFF708FE012240213548FFF703FE4FF07C
:10114000006002903248001D039032480490402015
:10115000059004200690002007904FF480600890CE
:10116000002009900A900B904FF400300C90002062
:101170000D9001200E9000200F90109002A926489B
:10118000FFF7B8F901212448FFF78CF94FF0006010
:1011900002901F48001D03902048049000200590F5
:1011A00005200690002007904FF4806008900020F2
:1011B00009900A900B904FF400300C9000200D9095
:1011C00001200E9000200F90109002A91248303894
:1011D000FFF790F9012110483038FFF763F90D202F
:1011E0008DF8040000208DF805008DF80600012020
:1011F0008DF8070001A8FFF71BFA0122102106480D
:101200003038FFF75AF917B000BD00000000024067
:10121000004C00405000002070600240550000204B
:10122000FFF73AFF00BF064800780028FBD0FFF721
:1012300061FEFFF7FDFDFFF7F9FE00BFFEE70000CE
:101240000A0000202DE9F04F89B09548006800F0B1
:1012500057FD8046934A944B00F034FB21F0004543
:10126000044692498E48006800F042FF8246904949
:1012700000F0E0FD81468F480168484601F040F8E3
:10128000804600F03DFD21F00041064622462B46F7
:1012900000F016FC01D2012600E000260021804863
:1012A000006800F089FE01D0012000E00020064027
:1012B0008048006800F024FD21F00041044600222F
:1012C0007D4B00F0FDFB01D2012400E00024002151
:1012D0007348006800F070FE01D1012000E000209A
:1012E00004402643002E7DD070496D48006800F010
:1012F000FFFE05466E4900F09DFD04466D480168FD
:10130000204600F0FDFF6D4908606D4801684FF010
:10131000804000F0EDFE804668480168404600F0DD
:10132000E4FF074667480168384600F015FD0646A9
:1013300065480168304600F0DBFE0546634900F071
:10134000D7FE044600F0DCFCCDE904015C480168EE
:101350005A48006800F000FD064600F0D1FCCDE9D7
:1013600000015B48006800F0CBFC0646594A5A4B26
:1013700000F0A8FA0446DDE9002300F0A3FA804655
:1013800089464F4801684D48006800F0B9FF06469D
:1013900052480168304600F0ABFE054650480168EF
:1013A000284600F0D9FC044600F0AAFC82464246DA
:1013B0004B4600F097F9CDE90201DDE9042300F086
:1013C00091F9CDE9060100F05BF9464908603C4817
:1013D00000683C490860394800683949086041485C
:1013E000006800E028E03E4908603E4800683D494A
:1013F00008604FF07E513B48006800F045FF04D282
:101400004FF07E503749086008E03749354800689A
:1014100000F03AFE02D234483249086000213148D7
:10142000006800F031FF03D201203049087006E067
:1014300000202E49087002E000202A4908602B484D
:101440000078012811D12A492648006800F050FE92
:10145000054600F0E5FD044621462648FFF71FFC3F
:1014600000212548FFF71BFC16E01E48006880F0AD
:1014700000401C4908601E491A48006800F038FE08
:10148000054600F0CDFD044621461B48FFF707FC4A
:1014900000211848FFF703FC09B0BDE8F08F0000F9
:1014A000380000209A9999999999A93F0000A5447C
:1014B0000000B4435C0000200000244044000020F1
:1014C000400000203C000020300000200000484385
:1014D0002C0000207B14AE47E17A643F34000020EA
:1014E000480000204C000020000080BF08000020C1
:1014F0000000A04400080040004001402DE9F04FEA
:1015000089B0504801685048006800F0F9FE4F4922
:1015100008604F4801684FF0804000F0E9FD8046C8
:101520004A480168404600F0E0FE07464948016825
:10153000384600F011FC064647480168304600F086
:10154000D7FD0546454900F0D3FD044600F0D8FB21
:10155000CDE904013E4801683C48006800F0FCFB0E
:10156000804600F0CDFB06460F463D48006800F07F
:10157000C7FB80463B4A3C4B00F0A4F932463B4651
:10158000CDE9000100F09EF904460D46304801689F
:101590002E48006800F0B4FE80463448016840469A
:1015A00000F0A6FD074632480168384600F0D4FB3B
:1015B000064600F0A5FB824622462B4600F092F834
:1015C000CDE90201DDE9042300F08CF8CDE9060144
:1015D00000F056F8274908601D4800681D4908605A
:1015E0001A4800681A4908602248006820490860C3
:1015F000204800681F4908604FF07E511D48006870
:1016000000F042FE04D24FF07E501A49086008E014
:1016100000211848006800F037FD02D2002015496B
:10162000086015491348006800F062FD054600F0A7
:10163000F7FC044621461148FFF731FB09B0BDE82D
:10164000F08F00006C0000203800002044000020D3
:10165000400000203C00002030000020000020421C
:101660002C0000209A9999999999893F340000207B
:10167000480000204C0000200000A044000800406A
:1016800021F00042A2F16052B2F5801F01F0004348
:1016900028BFD2F17F6C0BD95FEA001C43EAC2027B
:1016A00042EB507018BF704728BF20F00100704710
:1016B000B2F5801FBCBF184670474FEA410C1CF5BD
:1016C000001F02D2084600F0DABD70B500F0A4F9A0
:1016D00000000089FFF7F6BF4FF00040A0F5800042
:1016E0007047000010B591EA030F48BF83F0004334
:1016F00000F12482841A71EB030C05D2121943EB1A
:101700000C03001B61EB0C01DFF824E14FEA1154DC
:10171000A4EB135C1EEA430F18BF9EEA445F73D02C
:1017200023EA0E03DCF1200E21EA045143F4801376
:1017300032D322FA0CFE10EB0E0023FA0CFE41EB22
:101740000E01CCF1200E03FA0EFE10EB0E0051F14B
:101750000001B1F5801FCCF1200E32D201EB045113
:1017600012FA0EF2BDE8104058BF7047401C38BF57
:101770005FEA420218BF7047002814BF20F0010042
:1017800041F100014FEA410313F5001F38BF7047D4
:10179000A1F1C04100F08EB9012A43EB0302ACF184
:1017A000200CDCF11F0E32BF4FF0000E23FA0CF3B9
:1017B00010EB030041EB0451B4EB115FD0D0A1EB6F
:1017C000045101F5801149085FEA300001EB045132
:1017D0000ED350F1000038BF12FA0EFE08D1BDE85A
:1017E0001040C9E7401C38BF5FEA4202CAD1C3E7D4
:1017F000BDE810404FEA410313F5001F38BF7047A2
:10180000A1F1C04100F056B99EEA445F08D011EA48
:101810005E0FBDE8104004BF01F00041002070479A
:10182000BDE8104070B500F0F7F800BF64FBBE3EA5
:101830000000E0FF491058BFC1F140415B1058BFA4
:10184000C3F140438B42EFF30080704751EA030C31
:1018500017D41CF5801F58BFBCF5801F00F106800F
:10186000994218BF704708BF9042704707D711F5DB
:10187000801F58BF13F5801F19D4994270478942C1
:1018800070471CF5801F08D5BCF5801FF7D58B422B
:1018900018BF704708BF824270474FF4001C1CEB12
:1018A000410F38BF1CEB430F01D28B42704770B51C
:1018B00000F0B2F8922449004FF000514FF08053ED
:1018C000FFF7B8BFDFF848C170B51CEA111E1EBF94
:1018D0001CEA13159EEA0C0F95EA0C0F00F06F80BE
:1018E00081EA030423EA4C134EEAD47E21EA4C1128
:1018F00041F4801143F48013AE44A1FB024CA0FBE1
:101900000365AEF17F7E361955EB0C05A1FB034C48
:101910004CF10003A0FB021C16EB0C06654153F1D1
:101920000003094218BF46F0010613F4007F0BD1F3
:101930004FEA03314FEA0530340341EA155140EADA
:1019400016506FF003020AE04FEAC3214FEAC520A8
:10195000F40241EA555140EA56506FF0020202EBA0
:101960002E4201EB025585EACE710AD05FEA440CA3
:1019700018BF24F0004450F1000041F1000120EABA
:10198000D47040F2FE7C624500D270BDA84214BF04
:101990004FF080444FF04044002E08BF0024BEF1B9
:1019A000806FA8BFA1F1C041BDE8704080F2828085
:1019B0004FF0000001F1C04101F0004170479EEA84
:1019C0000C0F0CEA131518BF95EA0C0F06D04FF058
:1019D000000081EA030E0EF0004170BD00F01CF81B
:1019E0008900013E00F007B800F009B84FEA430C47
:1019F0005FEA5C5C08D081EA030100F05BB84FEA63
:101A0000410C5FEA5C5CF6D14FF000000149704781
:101A10000000FF070000F87F0EF1020E2EF0030E0B
:101A20005EF8046B364205D4012A43EB030515F535
:101A3000001F12D8012841EB010C1CF5001F0CD827
:101A40000ED14FEAD17C15F5001F0CEB4C0C0CF1BC
:101A5000020C08BF4CEBD37C04E04FF0080C01E013
:101A60004FEAD37C0CEB4C0526FA05F606F0070688
:101A7000B6F1040C06D20EEB860CBDE870404CF0BB
:101A8000010C6047DFE80CF0090B02024FF0004147
:101A90004FF00000A1F5002170BD19461046012845
:101AA00051EB010418BFD4F5001484BF002001F0ED
:101AB000004170BD0808A0F500114FEA31017047E0
:101AC00053EA010C17D41CF5801F58BFBCF5801FCA
:101AD00000F106808B4218BF704708BF82427047F2
:101AE00007D713F5801F58BF11F5801F19D48B42FB
:101AF00070479B4270471CF5801F08D5BCF5801FBE
:101B0000F7D5994218BF704708BF904270474FF40D
:101B1000001C1CEB430F38BF1CEB410F01D2994254
:101B200070470FB40CBC03BCFFF7C1BE10B591EAFF
:101B3000030F48BF83F000433FF5DCAD841A71EB1F
:101B4000030C07D212198CF0004C43EB0C03001B62
:101B500061EB0C01DFF8A4E14FEA1154A4EB135C34
:101B60001EEA430F18BF9EEA445F00F0B08023EAEC
:101B70006E03524221EA0451C3EB6E0338BF5B1E71
:101B8000DCF1200E25D322FA0CFE10EB0E0043FAF6
:101B90000CFE41EB0E01CCF1200E03FA0EFE10EB11
:101BA0000E0051F10001CCF1200E29D412FA0EF2F0
:101BB00001EB0451BDE8104058BF7047401C1CBFEA
:101BC000B2F1004F704700280CBF491C20F0010003
:101BD000704712EB020E43EB030218BF4FF0010EE9
:101BE0004EEA4202ACF1200CDCF11E0E54D943FA4D
:101BF0000CFE10EB0E0051F1FF31CCF11E0ED5D5CD
:101C00000EF1010E12FA0EFE404141EB010101EB13
:101C1000445C5FEA5C5C10D910EBDE7001EB0451B0
:101C200038BFBEF1004FBDE8104018BF7047002814
:101C30000CBF491C20F00100704730D24FEAD42C71
:101C400011F5001124F400641BD0B1FA81F20B3AB3
:101C5000A41AA41ED2F12003914030FA03F31943D1
:101C6000904001EBCC71002C01EB0451BDE8104019
:101C7000A8BF704701F1C0414FF0000001F00041E2
:101C80007047B0FA80F310FA03F100D110BDE41AE6
:101C9000173C4805C90AE4E701EB045110BD49109F
:101CA00001EB0451BDE810404FEA300002E04FF074
:101CB000000170474A0008BF0042F8D0B2F5001F8B
:101CC00028BF704701F000414FF0000070479EEAC6
:101CD000445F07D011EA5E0FBDE8104004BF002149
:101CE00000207047BDE8104070B5FFF795FE00BFBB
:101CF00040DFF63E83F00041104670470000E0FFF1
:101D000043004FEAD30C4FEA3C0C43401FBF40074F
:101D10000CF1605113F0FE4F70471CF0006F03D1BF
:101D200000200CF0004170470CF0004343EA507073
:101D300010B540EACC0000F05CFA00BF0000009251
:101D40004FEA0001FFF7B6BE4FF000414FF0000030
:101D5000A1F500217047000090EA010F48BF81F013
:101D6000004100F1D482421A3CBF801A89184FEA20
:101D7000D0524FF07F4C1CEA410FA2EBD15318BF59
:101D80009CEA026F00F03B804FF0004C4CEA0020D0
:101D90004CEA012121FA03FC10EB0C0C1ED202F1DB
:101DA000FF325FEA1C2040EBC25038BF70471CF086
:101DB0007F0F4FEA400C18BFBCF17F4F38BF704710
:101DC000C3F12003994008BF20F00100BCF17F4F10
:101DD00038BF7047A0F1C04000F051BA4FEA3C0054
:101DE000000A40EBC25028BF1CF0FF0F4FEA400C26
:101DF000E6D018BFBCF17F4F38BF7047EAE79CEAD6
:101E0000026F05D010EA5C0F08BF00F00040704779
:101E100010B500F0EEF900BF64FBBE3E401058BFA5
:101E2000C0F14040491058BFC1F140418142EFF339
:101E3000008070474FF47F0C1CEAD0121EBF1CEAD2
:101E4000D11392EA0C0F93EA0C0F00F0858090EA10
:101E5000010F48BF42F4807240F4000C41F40000CE
:101E60002CF07F4120F07F4000B58142A2EB0302BD
:101E70000FF2081CACEB504EC0F100009EF800E0E1
:101E80004FEA4E0E00FB0EFC38BF49004FEA2C1CF7
:101E900002F5FA020CFB0EF34FEACE1E4FEA112CAC
:101EA0004FEAC1210EEB635E42EB22420EFB0CFCBB
:101EB0004FEA1C5300FB03114FEA112C4FEA01318A
:101EC0000EFB0CFC4FEADC4C00FB0C11C14228BF9E
:101ED00009184CEB03335DF804EB10EB410143EBC5
:101EE000C250B2F57C0F38BF704729D512F0F00F01
:101EF0001CBF00F1C04000F00040704700818283A9
:101F00008485868788898B8C8D8E8F919293959608
:101F100097999A9C9D9FA0A2A3A5A7A8AAACAEB092
:101F2000B2B3B5B7B9BCBEC0C2C5C7C9CCCED1D497
:101F3000D7D9DCDFE2E6E9ECF0F3F7FAFE000000C7
:101F40004FEA400C0CF1807CBCF17E4F28BF7047FB
:101F5000B0F1C04000F093B990EA010F0CEAD11340
:101F600048BF42F48072624538BF634507D213F41C
:101F70007F0F16D080EA010000F00040704710B5D6
:101F800000F037F9097EFC3E00F005B880EA010058
:101F900000F00040704780EA010000F0004000F0CF
:101FA0006EB912F47F0F04BF0248704780EA010047
:101FB00000F065B90000C07F50EA010C00F1138009
:101FC0001CF5000F58BFBCF5000F01D488427047C4
:101FD00007D710F5000F58BF11F5000F15D4884230
:101FE0007047894270471CF5000F04D5BCF5000FFF
:101FF000F7D5814270474FF0807C1CEB400F38BF13
:102000001CEB410F01D28142704710B500F0F1F88E
:10201000922449004FF000504FF08051FFF7FEBE70
:10202000C10DD1F19E0206DB4FEA002343F00043CD
:1020300023FA02F07047004207D54FEA4001B1F1A0
:10204000FE4F02D24FF00000704710B500F0D1F8FB
:1020500049922480002070476FEA200070470000FA
:10206000B0FA80F310FA03F2C3F19D030AD0D90548
:1020700001EB1220530638BF704700F1010008BF82
:1020800020F001007047000050EA010C00F11380BD
:102090001CF5000F58BFBCF5000F01D488427047F3
:1020A00007D710F5000F58BF11F5000F15D488425F
:1020B0007047894270471CF5000F04D5BCF5000F2E
:1020C000F7D5814270474FF0807C1CEB400F38BF42
:1020D0001CEB410F01D28142704710B500F089F826
:1020E000922449004FF000504FF08051FFF796BE08
:1020F0004FF47F0C1CEAD0121EBF1CEAD11392EAE7
:102100000C0F93EA0C0F00F0478090EA010F48BFD4
:1021100042F480724FF0004C4CEA00204CEA01215E
:1021200002EB0302A0FB0113A2F50002002918BF75
:1021300043F001035B0028BF4FEA330342EB224226
:102140005FEA132C4CEBC2502EBFBCEB436FB2F5D1
:102150007C0F70474FEA036CBCF1004F08BF20F0C2
:102160000100B2F57C0F38BF70470BD582F0FF023B
:1021700012F5803FC8BF704700F1C040D8BF00F0E3
:102180000040704700F5000C5FEA4C0C48BF7047F8
:10219000B0F1C04000F073B890EA010F0CEAD1131F
:1021A00048BF42F48072624538BF634504D280EA7A
:1021B000010000F00040704710B500F01AF800BFB1
:1021C0008900013E00F007B800F009B85FEA410C51
:1021D0005FEA1C6C08D080EA010000F050B85FEAAA
:1021E000400C5FEA1C6CF6D14FF00040A0F5800077
:1021F00070470EF1020E2EF0030E5EF8044B2442DF
:1022000004D44FEA4102B2F17F4F11D84FEA4003A4
:10221000B3F17F4F0CD80ED14FEAD07CB2F17F4F93
:102220000CEB4C0C0CF1020C08BF4CEBD17C04E025
:102230004FF0080C01E04FEAD17C0CEB4C0324FA80
:1022400003F404F00704B4F1040C06D20EEB840C82
:10225000BDE810404CF0010C6047DFE80CF00708C7
:1022600002024FF00040A0F5800010BD0846420079
:1022700018BFD2F1807288BF00F0004010BDFF216E
:1022800041EAD050C005704751EA000C00F11380BC
:102290001CF5000F58BFBCF5000F01D481427047F8
:1022A00007D711F5000F58BF10F5000F15D4814264
:1022B0007047894270471CF5000F04D5BCF5000F2C
:1022C000F7D5884270474FF0807C1CEB410F38BF38
:1022D0001CEB400F01D28842704780EA010081EA7E
:1022E000000180EA0100FFF7F8BE80F0004090EAAC
:1022F000010F7FF538AD81F0004100F008B8000013
:1023000090EA010F48BF81F000413FF52CAD421A21
:1023100004D882F00042A0EB020011444FEAD052F0
:102320004FF07F4C1CEA410FA2EBD15318BF9CEA3F
:10233000026F4AD04FF0004C4CEA00204CEA0121D9
:1023400021FA03FCB0EB0C0C0FD412F0FE0F36D0C8
:102350005FEA4C001DD5001240EBC25038BF7047F9
:102360001CF03F0F18BF70470BE0A2F101025FEABB
:102370001C2040EBC25038BF70471CF07F0F18BFC5
:102380007047C3F12003994014BF401E20F00100A4
:10239000704780084FEA122308BF7047B0FA80FCEC
:1023A000A2EB0C02CCF1280C60FA0CF093EA122F8D
:1023B00004BF00EBC25070474FEAC3707047130A66
:1023C0005FEADC1008BF7047F6E79CEA026F04D0B2
:1023D00010EA5C0F08BF0020704710B5FFF709FF37
:1023E00040DFF63E81F00040704700000C240008FA
:1023F0000000002080000000C40100088C240008B8
:102400008000002060060000E001000800000000DD
:1024100000000000010000000000000000000000BB
:1024200000000000000000000000000000000000AC
:10243000000000000000000000000000000000009C
:10244000000000000000000000000000000000008C
:10245000000000000000000000000000000000007C
:10246000000000000000000000000000000000006C
:10247000000000000000000000000000000000005C
:0C2480000102030401020304060708091E
:0400000508000225C8
:00000001FF
